:020000040800F2
:100000009806002035020008071100088D1000082E
:10001000051100083B030008F5130008000000006C
:100020000000000000000000000000005513000860
:100030003D030008000000000911000857130008E4
:100040004F0200084F0200084F0200084F0200084C
:100050004F0200084F0200084F0200084F0200083C
:100060004F0200084F0200084F0200084F0200082C
:100070004F0200084F0200084F0200084F0200081C
:100080004F0200084F0200084F0200084F0200080C
:100090004F0200084F0200084F0200084F020008FC
:1000A0004F0200084F0200084F0200084F020008EC
:1000B0004F0200084F020008000000004F02000835
:1000C0004F0200084F0200084F0200084F020008CC
:1000D0004F0200084F0200084F0200084F020008BC
:1000E0004F0200084F02000800000000000000005E
:1000F0000000000000000000000000000000000000
:10010000000000004F020008000000004F0200083D
:100110004F020008000000004F020008000000002D
:100120004F0200084F0200084F0200084F0200086B
:100130004F0200084F0200084F02000800000000B4
:100140004F0200084F0200084F0200084F0200084B
:100150004F0200084F0200084F0200084F0200083B
:100160004F0200084F0200084F0200080000000084
:10017000000000004F020008000000000000000026
:100180004F0200084F0200084F0200084F0200080B
:100190004F02000800F002F800F03CF80AA090E8D6
:1001A000000C82448344AAF10107DA4501D100F032
:1001B00031F8AFF2090EBAE80F0013F0010F18BFC3
:1001C000FB1A43F001031847AC120000CC120000E8
:1001D000103A24BF78C878C1FAD8520724BF30C873
:1001E00030C144BF04680C60704700000023002445
:1001F00000250026103A28BF78C1FBD8520728BF37
:1002000030C148BF0B6070471FB501F00DF91FBD2D
:1002100010B510BD00F058F81146FFF7F5FF01F0DA
:10022000FAF800F076F803B4FFF7F2FF03BC00F031
:100230007DF800000948804709480047FEE7FEE7CF
:10024000FEE7FEE7FEE7FEE7FEE7FEE7FEE7FEE786
:1002500004480549054A064B70470000E5130008AD
:1002600095010008980000209806002098020020C0
:10027000980200204FF0000200B5134694469646BF
:10028000203922BFA0E80C50A0E80C50B1F12001A9
:10029000BFF4F7AF090728BFA0E80C5048BF0CC057
:1002A0005DF804EB890028BF40F8042B08BF7047B5
:1002B00048BF20F8022B11F0804F18BF00F8012B27
:1002C0007047704770477047754600F02BF8AE4690
:1002D00005006946534620F00700854618B020B552
:1002E000FFF7B6FFBDE820404FF000064FF00007D3
:1002F0004FF000084FF0000B21F00701AC46ACE8CE
:10030000C009ACE8C009ACE8C009ACE8C0098D463A
:10031000704710B50446AFF300802046BDE810409A
:10032000FFF781BF004870473400002001491820C2
:10033000ABBEFEE7260002007047FEE7704772B6CC
:10034000FEE70000014880687047000000000020C0
:1003500002488168027811448160704700000020E3
:1003600010B50024032000F063F80F2000F008F817
:1003700008B1012401E000F025F8204610BD00007E
:1003800070B50E4E05460024307898B14FF47A715E
:10039000B1FBF0F00A490968B1FBF0F000F062FE31
:1003A00040B9102D06D200222946501E00F020F838
:1003B000756000E00124204670BD000000000020B0
:1003C0000C000020094808B5016E41F001010166EA
:1003D000016E01F001010091816D41F08051816554
:1003E000806D00F08050009008BD000000100240B9
:1003F000F0B40E4B1B680C46C3F30223C3F1070590
:10040000042D00D90425191D072901D2002300E07D
:10041000DB1E012606FA05F1491E214099409E4047
:10042000761E16403143F0BC00F0E5BF0CED00E055
:10043000064900F0070208684FF6FF03184040EA3B
:100440000220034A10430860704700000CED00E0F2
:100450000000FA051649B0F5007F0868C0F3412096
:1004600009D0022805D0086820F4C06040F48060FC
:100470000860002070470128FBD0086820F4C060A5
:1004800040F4007008600B483222006850430A4A6A
:10049000B0FBF2F0401C00E0401E4A69520501D555
:1004A0000028F9D148694005E3D5032070470000D2
:1004B000007000400C00002040420F00024800681D
:1004C00000F4C060704700000070004002480168FE
:1004D00041F4807101607047007000402DE9F84FD1
:1004E000044600270088C04D3E46000515D5E06C47
:1004F00060B1B0F5000F04D0B0F5400F2BD001274C
:100500000AE0E86840F48030E86024E00021201D23
:1005100000F0FCFD07001ED03E46206880033AD55F
:10052000A86D4FF00008C00009D4A86D40F08050BD
:10053000A865A86D4FF0010800F080500090DFF82A
:10054000ACA2DAF8001041F48071CAF80010FFF78D
:10055000F9FE814610E0D5F88800E16C20F44000F7
:100560000843C5F88800D8E7FFF7ECFEA0EB0900C8
:10057000022801D9032705E0DAF80000C005F3D509
:10058000002F7CD04FEA0706B8F1000F03D0A86D0A
:1005900020F08050A8652078C00707D0D5F88800E3
:1005A000216A20F003000843C5F8880020788007FE
:1005B00007D5D5F88800616A20F00C000843C5F81B
:1005C00088002078400707D5D5F88800A16A20F078
:1005D00030000843C5F888002078000707D5D5F813
:1005E0008800E16A20F0C0000843C5F88800207840
:1005F000800607D5D5F88800216B20F440600843B9
:10060000C5F888002088800507D5D5F88800616C7A
:1006100020F440200843C5F888002088400507D50D
:10062000D5F88800A16C20F440100843C5F8880074
:100630002078400607D5D5F88800616B20F440503B
:100640000843C5F888002078000607D5D5F888004B
:10065000A16B20F440400843C5F888002088C005FD
:1006600007D5D5F88800E16B20F440300843C5F881
:1006700088002068C00209D5D5F89C0000E01CE085
:10068000216C20F003000843C5F89C0020884FF03F
:10069000006780044FF080684ED5D5F88800216D42
:1006A00020F040600843C5F88800206DB8423BD177
:1006B000E86840F48010E8603EE0D5F8900010F45F
:1006C000407014D0616E814211D0D5F89000D5F8F9
:1006D000901020F4407041F48031C5F89010D5F8A6
:1006E000901021F48031C5F89010C5F89000C00733
:1006F00011D0FFF727FE074641F2883907E000BF17
:10070000FFF720FEC11B494501D903263CE7D5F878
:1007100090008007F4D5D5F89000616E20F4407009
:100720000843C5F890002FE7404505D10121201D61
:1007300000F0ECFC00B106462068000317D5D5F8A0
:100740008800616D20F040600843C5F88800606D46
:10075000B84204D1E86840F48010E86007E0404502
:1007600005D10121201D00F0D1FC00B10646206812
:10077000400317D5D5F88800A16D20F040600843EC
:10078000C5F88800A06DB84204D1E86840F4801034
:10079000E86007E0404505D10121201D00F0B6FCCE
:1007A00000B106462088400411D5D5F88800E16DD7
:1007B00020F040500843C5F88800E06DB0F1805F3C
:1007C00005D10221201D00F0A1FC00B106462068E1
:1007D000C00306D555F8880F216E20F0004008436D
:1007E00028603046BDE8F88F0010024000700040DD
:1007F0002DE9F0470F4605006BD0494E306800F0F8
:100800000700B84209D2306820F007003843306052
:10081000306800F00700B8425BD12878414C80076F
:100820000AD5A868A16801F0F001884204D9A1683E
:1008300021F0F0010143A1602878C0072CD068683E
:10084000032811D0022812D0216898B14905002947
:100850003FDAA16821F003010143A160FFF772FDB7
:10086000804641F2883910E021688901EFE721686C
:100870008903ECE78907EAE7FFF764FDA0EB0801CD
:10088000494502D90320BDE8F087A068696800F0F7
:100890000C00B0EB810FEFD1287880070AD5A8684B
:1008A000A16801F0F001884204D2A16821F0F001B2
:1008B0000143A160306800F00700B8420BD93068EE
:1008C00020F0070038433060306800F00700B8427D
:1008D00001D00120D7E72878400705D5A068E9684E
:1008E00020F4E0600843A0602878000706D5A068DF
:1008F000296920F4605040EAC100A06000F01AF8B5
:10090000A168094AC1F30311515C01F01F01C840FD
:100910000649086006480068BDE8F047FFF730BDAB
:100920000020024000100240341400080C00002097
:100930000400002070B52549002318468A68CC6859
:1009400012F00C0204F00306214C4FEA640509D0B2
:100950000C2A05D0042A32D0082A00D1284670BDBE
:10096000012E10D10B681B0704D4D1F89430C3F3C7
:10097000032302E00B68C3F30313164E56F823302B
:10098000DAB10C2AEBD1C86800F00300022818D0B5
:10099000032818D01846CA68CB68C2F30212C3F302
:1009A00006234343521CB3FBF2F2C868C0F3416014
:1009B000401C4000B2FBF0F070BD184670BD2046F0
:1009C00070BD2046E7E72846E5E70000001002403A
:1009D0000024F400441400082DE9F84304006FD00B
:1009E000FA4DA86800F00C06E86800F003072078CC
:1009F000C00664D576B10C2E01D1012F0AD0A069B2
:100A0000002828687AD040F001002860FFF79AFC9F
:100A100080465DE02868800702D5A0690028DED006
:100A2000216A2868000703D5286800F0F00004E078
:100A3000D5F89400F02202EA1010814216D9084637
:100A400000F0FAFB00283BD1286840F0080028603D
:100A50002868216A20F0F000084328606868E1698E
:100A600020F47F4040EA0120686016E0286840F0EA
:100A7000080028602868216A20F0F00008432860F8
:100A80006868E16920F47F4040EA0120686026B987
:100A9000206A00F0D1FB0028D5D1FFF74BFFA968F1
:100AA000CB4AC1F30311515C01F01F01C840C94991
:100AB0000860C9480068FFF763FC00287ED12EE07B
:100AC000CAE000BFFFF73EFCA0EB0800022876D882
:100AD00028688007F6D5286840F008002860286854
:100AE000216A20F0F000084328606868E16920F47A
:100AF0007F4040EA0120686011E0FFE720F001003C
:100B00002860FFF71FFC804606E000BFFFF71AFCD5
:100B1000A0EB08000228DAD828688007F6D42078ED
:100B2000C00740D0082E18D00C2E01D1032F14D0AE
:100B30006068B0F5803F17D0B0F5A02F286817D0B7
:100B400020F480302860286820F4802028606068C5
:100B5000E0B1FFF7F7FB804614E02868800322D558
:100B60006068002878D01EE0286840F48030EDE707
:100B700040F480202860F7E7FFF7E4FBA0EB0800D3
:100B80006428A4D828688003F6D50CE0FFF7DAFBC8
:100B9000804605E0FFF7D6FBA0EB0800642896D856
:100BA00028688003F6D4207880073BD5042E11D026
:100BB0000C2E01D1022F0DD0E06801E0AAE1FFE088
:100BC000002828681ED040F480702860FFF7BAFB28
:100BD00007460CE0286840050CD5E0680028C1D025
:100BE00008E000BFFFF7AEFBC01B022893D82868BF
:100BF0004005F7D56868217C20F0FE4040EA01609E
:100C000068600FE020F480702860FFF79BFB0746C8
:100C100005E000BFFFF796FBC01B0228B1D828688B
:100C20004005F7D42078000729D560690028D5F859
:100C3000940012D040F00100C5F89400FFF782FB49
:100C4000074604E0FFF77EFBC01B022899D8D5F8C1
:100C500094008007F6D512E02BE120F00100C5F8E2
:100C60009400FFF76FFB074605E000BFFFF76AFB44
:100C7000C01B022885D8D5F894008007F6D42078C8
:100C8000400766D5A86D0027C00008D4A86D40F0C5
:100C90008050A865A86D012700F0805000904F4853
:100CA0000168C90512D40168814641F48071016070
:100CB000FFF748FB804605E0FFF744FBA0EB080088
:100CC00002287DD8D9F80000C005F5D5A068012814
:100CD00016D00528D5F8900017D020F00100C5F8EF
:100CE0009000D5F8900020F0040000BFC5F89000F7
:100CF000A06841F28839C0B1FFF724FB80460FE0BD
:100D0000D5F8900040F00100F0E740F00400C5F88D
:100D10009000F5E7FFF716FBA0EB080149454FD817
:100D2000D5F890008007F5D50EE0FFF70BFB804665
:100D300006E000BFFFF706FBA0EB080149453FD8DE
:100D4000D5F890008007F5D41FB1A86D20F0805031
:100D5000A8652078800628D5606A0028D5F8980014
:100D600012D040F00100C5F89800FFF7EBFA0746F3
:100D700005E000BFFFF7E6FAC01B022820D8D5F82F
:100D800098008007F6D510E020F00100C5F8980023
:100D9000FFF7D8FA074604E0FFF7D4FAC01B022891
:100DA0000ED8D5F898008007F6D4A06AF0B30228D0
:100DB00016D00C2E7DD0286820F08070286000E0CE
:100DC000A7E0FFF7BFFA0446A6E0000000100240CB
:100DD000341400080C0000200400002000700040C3
:100DE000E868E26A00F00301914228D1216B00F02B
:100DF000700209011039914221D1626B00F4FE4169
:100E0000B1EB022F1BD194F8382000F07841B1EB00
:100E1000C26F14D1A18F00F4C00249084905A1F5A1
:100E2000001191420BD194F8401000E06AE04908AB
:100E3000490600F0C060A1F1007181424BD00C2E38
:100E400073D02868400170D4286820F08070286032
:100E5000FFF778FA064604E0FFF774FA801B0228D1
:100E600057D828688001F7D4F4E90B016FF00F021E
:100E700002EB01110843218A5204490802EB415157
:100E8000A26841EA02210843217D4FF07E424908D1
:100E900002EB41610843217B40EAC160E968244AD2
:100EA00011400843E860286840F080702860E868D6
:100EB00000E03AE040F08070E860FFF743FA044653
:100EC00005E000BFFFF73EFA001B022821D8286882
:100ED0008001F7D527E02868800124D4286840F0F5
:100EE00080702860E86840F08070E860FFF72AFAB8
:100EF000044604E0FFF726FA001B022809D82868F8
:100F00008001F7D50FE000BFFFF71CFA001B022895
:100F100002D90320BDE8F88328688001F4D4E8688A
:100F200004490840E8600020F4E70120F2E70000EF
:100F30008C809D01FCFFEEFE10B504004FF0010017
:100F400048D094F8210028B9002084F820002046D9
:100F500000F04AF8022084F821002068C168C943E3
:100F6000C90638D5CA21416221685320486220460B
:100F700000F0A0F9B0B9206881681A4A1140816078
:100F8000216888686268A369104322691A43104384
:100F900088602168E068086120680169228941EA67
:100FA00002410161204600F0A9F900280DD1216815
:100FB000CA6C22F00302CA646269E16941EA020173
:100FC0002268D36C41EA0301D16422684FF0FF012B
:100FD000516202D010BD4FF000004FF0010184F8C3
:100FE000211010BDBFFF8FFF10B59AB004466821D5
:100FF0006846FFF73FF90B492068884210D14FF44B
:1010000000300090401219906846FFF767FA08B167
:10101000FFF795F9044850F8901F41F40041016032
:101020001AB010BD002800400010024070B5044600
:101030000B482168C860FFF785F905464FF47A76BA
:1010400007E000BFFFF77EF9401BB04201D9032043
:1010500070BD2068C0688006F4D5002070BD000017
:101060005FFF030010B5401EB0F1807F01D3012067
:1010700010BD4FF0E02460610F21601700F0BBF954
:101080000020A06107202061002010BDFEE70000C5
:101090000D4808B5C16C41F00401C164C16C01F098
:1010A00004010091C16C41F08001C164C16C01F088
:1010B00080010091C16C41F00101C164C06C00F07D
:1010C0000100009008BD0000001002400C4810B55F
:1010D0000A49016000217F22C0E90112FF22C0E914
:1010E000032141618161C161FFF726FF002803D020
:1010F000BDE81040FFF723B910BD000000280040F4
:1011000010000020FEE7FEE7704700002DE9F041E7
:10111000444C05468846E0680026810728680DD0C3
:10112000E16801F00301814216D1A8B1E068696865
:10113000C0F30210401C88420ED120E0012804D0E8
:10114000022805D0032807D108E02168890701E0BB
:1011500021684905002907DB01265FE02168890332
:1011600002D421684903F5E7E1686A686FF00F036C
:1011700021F0730103EB021211430143E160206887
:1011800020F080602060FFF7DDF8074605E000BF33
:10119000FFF7D8F8C01B022837D820680001F7D421
:1011A000B8F1000F18D0B8F1010F1DD0287D4FF015
:1011B0007E41400801EB4060A96840EA01202169B6
:1011C000194A114008432061206840F08060206087
:1011D000FFF7B8F807461AE0A868297B000240EA42
:1011E000C1602169114AECE7288A1149400801EBE6
:1011F0004050A96840EA012021690E4AE1E700BF9A
:10120000FFF7A0F8C01B022801D9032606E02068DA
:101210000001F5D52069A969084320613046BDE881
:10122000F081000000100240FF80FFF9FF80FF07FF
:101230000000E0FFFF809FFFF8B51C4D064600242C
:10124000A86DC00002D5FFF739F90DE0A86D40F098
:101250008050A865A86D00F080500090FFF72EF92F
:10126000A96D21F08051A965B0F5007F04D0802ED2
:1012700007D94FF003040AE0802E08D9A02E01D828
:1012800004E001D1022402E0702E00D101240848BC
:10129000016821F0070121430160006800F00700A8
:1012A000A04201D00120F8BD0020F8BD001002408E
:1012B000002002402DE9F041044600680025C16885
:1012C000490617D4691EC160FFF73CF806464FF483
:1012D0007A78032708E000BFFFF734F8801B404509
:1012E00002D9032584F821702068C068400601D423
:1012F000032DF1D12846BDE8F08100002DE9F04131
:10130000064613480025016821F080010160041F92
:1013100020684FF00307800607D43046FFF786FEAB
:1013200090B186F8217003250EE0206820F020009F
:1013300020603046FFF77AFE10B186F82170032551
:10134000206840F0200020602846BDE8F0810000C1
:101350000C2800407047FEF7FBBF000010B596B0A8
:1013600044216846FEF786FF142111A8FEF782FF8C
:101370004FF40070FFF76EF808B172B6FEE7FFF7A2
:10138000A5F8174850F8901F21F0180101600520BA
:1013900000904FF480300121CDE9010102200324A7
:1013A0000A90CDE90B4112210D910721CDE90E10D4
:1013B00010906846FFF710FB08B172B6FEE70F20E9
:1013C000CDE911040020139014901590042111A868
:1013D000FFF70EFA002801D072B6FEE716B010BD76
:1013E000001002400248016841F47001016070473A
:1013F00088ED00E0FEE70907090E002804DB00F194
:10140000E02080F80014704700F00F0000F1E020A9
:1014100080F8141D7047FEF7A3FFFFF79FFFFFF74B
:1014200037FEFFF753FEFEE74FF04070E1EE100A83
:1014300070470000000000000000000001020304EB
:1014400006070809A0860100400D0300801A060067
:1014500000350C0040420F0080841E0000093D0052
:1014600000127A000024F40000366E010048E80102
:10147000006CDC0294140008000000201000000042
:10148000D0010008A4140008100000208806000005
:10149000EC01000801000000100000000000000046
:0414A00000093D0002
:040000050800019559
:00000001FF
